{
  "contractName": "Count",
  "abi": [
    {
      "constant": true,
      "inputs": [],
      "name": "count",
      "outputs": [
        {
          "internalType": "uint256",
          "name": "",
          "type": "uint256"
        }
      ],
      "payable": false,
      "stateMutability": "view",
      "type": "function"
    },
    {
      "constant": true,
      "inputs": [],
      "name": "lastParticipant",
      "outputs": [
        {
          "internalType": "address",
          "name": "",
          "type": "address"
        }
      ],
      "payable": false,
      "stateMutability": "view",
      "type": "function"
    },
    {
      "constant": false,
      "inputs": [],
      "name": "plus",
      "outputs": [],
      "payable": false,
      "stateMutability": "nonpayable",
      "type": "function"
    },
    {
      "constant": false,
      "inputs": [],
      "name": "minus",
      "outputs": [],
      "payable": false,
      "stateMutability": "nonpayable",
      "type": "function"
    }
  ],
  "bytecode": "0x60806040526000805534801561001457600080fd5b506101cc806100246000396000f3fe608060405234801561001057600080fd5b506004361061004c5760003560e01c806306661abd1461005157806314434fa51461006f57806318b0c3fd14610079578063bfe7e4e314610083575b600080fd5b6100596100cd565b6040518082815260200191505060405180910390f35b6100776100d3565b005b610081610122565b005b61008b610171565b604051808273ffffffffffffffffffffffffffffffffffffffff1673ffffffffffffffffffffffffffffffffffffffff16815260200191505060405180910390f35b60005481565b60016000540360008190555033600160006101000a81548173ffffffffffffffffffffffffffffffffffffffff021916908373ffffffffffffffffffffffffffffffffffffffff160217905550565b60016000540160008190555033600160006101000a81548173ffffffffffffffffffffffffffffffffffffffff021916908373ffffffffffffffffffffffffffffffffffffffff160217905550565b600160009054906101000a900473ffffffffffffffffffffffffffffffffffffffff168156fea265627a7a72315820a0d896ab96059c42b264ebf05c0f719eeacdc1f1b7aa85a468a49de10585a52464736f6c63430005100032",
  "source": "pragma solidity >=0.4.22 <0.9.0;\r\n\r\ncontract Count {\r\n  uint public count = 0;\r\n  address public lastParticipant;\r\n  function plus() public {\r\n    count = count + 1;\r\n    lastParticipant = msg.sender; // msg.sender의 값을 lastParticipant에 저장합니다.\r\n  }\r\n  function minus() public {\r\n    count = count - 1;\r\n    lastParticipant = msg.sender; // msg.sender의 값을 lastParticipant에 저장합니다.\r\n  }\r\n}",
  "sourcePath": "C:\\Users\\KGA_03\\1027\\AzitGallery\\front\\contracts\\Count.sol",
  "compiler": {
    "name": "solc",
    "version": "0.5.16+commit.9c3226ce.Emscripten.clang"
  },
  "schemaVersion": "3.1.0",
  "updatedAt": "2021-10-27T08:37:43.940Z",
  "devdoc": {
    "methods": {}
  },
  "userdoc": {
    "methods": {}
  }
}