{
  "contractName": "KlaytnGreeter",
  "abi": [
    {
      "constant": false,
      "inputs": [],
      "name": "kill",
      "outputs": [],
      "payable": true,
      "stateMutability": "payable",
      "type": "function"
    },
    {
      "inputs": [
        {
          "name": "_greeting",
          "type": "string"
        }
      ],
      "payable": false,
      "stateMutability": "nonpayable",
      "type": "constructor"
    },
    {
      "constant": true,
      "inputs": [],
      "name": "greet",
      "outputs": [
        {
          "name": "",
          "type": "string"
        }
      ],
      "payable": false,
      "stateMutability": "view",
      "type": "function"
    }
  ],
  "bytecode": "0x608060405234801561001057600080fd5b506040516103be3803806103be8339810180604052602081101561003357600080fd5b81019080805164010000000081111561004b57600080fd5b8281019050602081018481111561006157600080fd5b815185600182028301116401000000008211171561007e57600080fd5b5050929190505050336000806101000a81548173ffffffffffffffffffffffffffffffffffffffff021916908373ffffffffffffffffffffffffffffffffffffffff16021790555080600190805190602001906100dc9291906100e3565b5050610188565b828054600181600116156101000203166002900490600052602060002090601f016020900481019282601f1061012457805160ff1916838001178555610152565b82800160010185558215610152579182015b82811115610151578251825591602001919060010190610136565b5b50905061015f9190610163565b5090565b61018591905b80821115610181576000816000905550600101610169565b5090565b90565b610227806101976000396000f3fe6080604052600436106100295760003560e01c806341c0e1b51461002e578063cfae321714610038575b600080fd5b6100366100c8565b005b34801561004457600080fd5b5061004d610159565b6040518080602001828103825283818151815260200191508051906020019080838360005b8381101561008d578082015181840152602081019050610072565b50505050905090810190601f1680156100ba5780820380516001836020036101000a031916815260200191505b509250505060405180910390f35b6000809054906101000a900473ffffffffffffffffffffffffffffffffffffffff1673ffffffffffffffffffffffffffffffffffffffff163373ffffffffffffffffffffffffffffffffffffffff161415610157576000809054906101000a900473ffffffffffffffffffffffffffffffffffffffff1673ffffffffffffffffffffffffffffffffffffffff16ff5b565b606060018054600181600116156101000203166002900480601f0160208091040260200160405190810160405280929190818152602001828054600181600116156101000203166002900480156101f15780601f106101c6576101008083540402835291602001916101f1565b820191906000526020600020905b8154815290600101906020018083116101d457829003601f168201915b505050505090509056fea165627a7a72305820fad0535777c9a66a24948cebaa2a79a6567855fb4c4e49e05eb3938dded011ef0029",
  "source": "pragma solidity >=0.4.22 <0.9.0;\r\n\r\ncontract Mortal {\r\n    /* 주소 타입의 소유자(owner) 변수 정의 */\r\n    address payable owner;\r\n    /* 이 함수는 초기화 시점에 실행되어 컨트랙트 소유자를 설정합니다 */\r\n    constructor () public { owner = msg.sender; }\r\n    /* 컨트랙트에서 자금을 회수하는 함수 */\r\n    function kill() public payable { if (msg.sender == owner) selfdestruct(owner); }\r\n}\r\ncontract KlaytnGreeter is Mortal {\r\n    /* 문자열 타입의 변수 greeting 정의 */\r\n    string greeting;\r\n    /* 이 함수는 컨트랙트가 실행될 때 작동합니다 */\r\n    constructor (string memory _greeting) public {\r\n        greeting = _greeting;\r\n    }\r\n    /* 주(Main) 함수 */\r\n    function greet() public view returns (string memory) {\r\n        return greeting;\r\n    }\r\n}",
  "sourcePath": "C:\\Users\\KGA_03\\1025Last\\AzitGallery\\front\\contracts\\KlaytnGreeter.sol",
  "compiler": {
    "name": "solc",
    "version": "0.5.6+commit.b259423e.Emscripten.clang"
  },
  "schemaVersion": "3.1.0",
  "updatedAt": "2021-10-27T02:12:19.429Z",
  "networkType": "ethereum",
  "devdoc": {
    "methods": {}
  },
  "userdoc": {
    "methods": {}
  }
}