{
  "contractName": "Mortal",
  "abi": [
    {
      "inputs": [],
      "payable": false,
      "stateMutability": "nonpayable",
      "type": "constructor"
    },
    {
      "constant": false,
      "inputs": [],
      "name": "kill",
      "outputs": [],
      "payable": true,
      "stateMutability": "payable",
      "type": "function"
    }
  ],
  "bytecode": "0x608060405234801561001057600080fd5b50336000806101000a81548173ffffffffffffffffffffffffffffffffffffffff021916908373ffffffffffffffffffffffffffffffffffffffff16021790555060e58061005f6000396000f3fe608060405260043610601c5760003560e01c806341c0e1b5146021575b600080fd5b60276029565b005b6000809054906101000a900473ffffffffffffffffffffffffffffffffffffffff1673ffffffffffffffffffffffffffffffffffffffff163373ffffffffffffffffffffffffffffffffffffffff16141560b7576000809054906101000a900473ffffffffffffffffffffffffffffffffffffffff1673ffffffffffffffffffffffffffffffffffffffff16ff5b56fea165627a7a723058205e16a171b9c940d36c92ee22831d7cce1cfbc93aea81c74ca0eb8c1f65cf03bf0029",
  "source": "pragma solidity >=0.4.22 <0.9.0;\r\n\r\ncontract Mortal {\r\n    /* 주소 타입의 소유자(owner) 변수 정의 */\r\n    address payable owner;\r\n    /* 이 함수는 초기화 시점에 실행되어 컨트랙트 소유자를 설정합니다 */\r\n    constructor () public { owner = msg.sender; }\r\n    /* 컨트랙트에서 자금을 회수하는 함수 */\r\n    function kill() public payable { if (msg.sender == owner) selfdestruct(owner); }\r\n}\r\n\r\ncontract KlaytnGreeter is Mortal {\r\n    /* 문자열 타입의 변수 greeting 정의 */\r\n    string greeting;\r\n    /* 이 함수는 컨트랙트가 실행될 때 작동합니다 */\r\n    constructor (string memory _greeting) public {\r\n        greeting = _greeting;\r\n    }\r\n    /* 주(Main) 함수 */\r\n    function greet() public view returns (string memory) {\r\n        return greeting;\r\n    }\r\n}",
  "sourcePath": "C:\\Users\\KGA_03\\1027\\AzitGallery\\front\\contracts\\KlaytnGreeter.sol",
  "compiler": {
    "name": "solc",
    "version": "0.5.6+commit.b259423e.Emscripten.clang"
  },
  "schemaVersion": "3.1.0",
  "updatedAt": "2021-10-27T08:25:08.241Z",
  "devdoc": {
    "methods": {}
  },
  "userdoc": {
    "methods": {}
  }
}